:10000000CAEF13F00000000000EF00F00000000055
:0A0010000000000000000000F3D71C
:0E001C0001014AB102D08B9801D08B881200EE
:0E002A0001014AB102D08B9601D08B861200E4
:0E00380001014AB102D08D9601D08D861200D2
:0E00460001014AB102D0899401D089841200D0
:0E00540001014AB102D08B9C01D08B8C1200AE
:0E00620001014AB102D08B9401D08B841200B0
:0E00700001014AB102D08B9A01D08B8A120096
:0E007E0001014AB102D08B9E01D08B8E120080
:0E008C0001014AB102D08A9201D08A8212008C
:0E009A0001014AB102D08D9401D08D84120074
:0E00A80001014AB102D08F9201D08F82120066
:0E00B60001014AB102D08F9401D08F84120054
:0E00C40001014AB102D08B9801D08B88120046
:0E00D20001014AB102D08B9601D08B8612003C
:0E00E00001014AB102D08A9401D08A84120034
:0E00EE0001014AB102D08B9801D08B8812001C
:0E00FC0001014AB102D08B9601D08B86120012
:0E010A0001014AB102D08F9001D08F80120007
:0E01180001014AB102D08B9A01D08B8A1200ED
:0E01260001014AB102D08B9801D08B881200E3
:0E01340001014AB102D08B9601D08B861200D9
:0E01420001014AB102D08B9201D08B821200D3
:0E01500001014AB102D08B9A01D08B8A1200B5
:0E015E0001014AB102D08D9001D08D801200B7
:10016C000F0121B302D00000FBD74AC11CFF1200C3
:0E017C00ACB202D00000FCD74AC1ADFF1200A9
:0E018A0001014AB102D08B9001D08B8012008F
:0E01980001014AB102D0899001D08980120085
:0E01A60001014AB102D08A9001D08A80120075
:0E01B40001014AB102D08D9201D08D8212005D
:0E01C20001014AB102D0899801D0898812004B
:0E01D00001014AB102D08B9801D08B88120039
:0E01DE0001014AB102D08B9601D08B8612002F
:0E01EC0001014AB102D0899201D0898212002D
:0E01FA0001014AB102D08B9C01D08B8C120007
:0E02080001014AB102D08B9E01D08B8E1200F4
:0E02160001014AB102D08B9801D08B881200F2
:0E02240001014AB102D08B9601D08B861200E8
:1002320068B409D01F0E6614016E0150000A03E172
:0A024200010E006E01D0006A1200E8
:10024C00F250026EF29E0500FF6A0150FE6E0050E5
:08025C00FD6E02BEF28E1200DD
:10026400C7B409D01F0EC514016E0150000A03E182
:0A027400010E006E01D0006A1200B6
:0A027E00000E82B6010E006E1200A1
:0A028800000E84B0010E006E12009B
:0A029200000E82B2010E006E120091
:0A029C00000E81B0010E006E12008A
:0A02A600000E82B8010E006E120077
:0A02B000000E82BA010E006E12006B
:0A02BA00000E82B0010E006E12006B
:0A02C400000EACB2010E006E120035
:0A02CE00000E9EBA010E006E120031
:1002D800AECF01F0ABA202D0AB98AB8801C000F062
:0202E800120002
:1002EA001DCF01F00F0122A302D02299228901C059
:0402FA0000F01200FE
:0A02FE00000E80B0010E006E120029
:0C030800000E0F0121B3010E006E120068
:0A031400000EA4BA010E006E1200E4
:0A031E00000E82BA010E006E1200FC
:0A032800000E82B8010E006E1200F4
:0A033200000E82B6010E006E1200EC
:0A033C00000E82B4010E006E1200E4
:0A034600000E82BC010E006E1200D2
:0A035000000E82BE010E006E1200C6
:0A035A00000E81B2010E006E1200C9
:0A036400000E82B6010E006E1200BA
:0A036E00000E82BC010E006E1200AA
:0A037800000E82BE010E006E12009E
:0A038200000E82B8010E006E12009A
:0A038C00000E84B2010E006E120094
:0A039600000E80B8010E006E120088
:0A03A000000E80B2010E006E120084
:1003AA00A19A44C16AFF93C045F194C046F195C031
:1003BA0047F196C048F168A422D0000193519411E4
:1003CA00951196111BE0010145514611471148113B
:1003DA000EE1EFC0E1FFF0C0E2FF040EE66EEDC0F1
:1003EA0000F0EEC001F02DDF010E006E3BD0010ED1
:1003FA000101455F000E465B475B485BDCD793C053
:10040A0045F194C046F195C047F196C048F1A1BAAA
:10041A0022D0000193519411951196111BE001010C
:10042A0045514611471148110EE1EFC0E1FFF0C0F6
:10043A00E2FF040EE66EEDC000F0EEC001F001DF4F
:10044A00010E006E0FD0010E0101455F000E465BE2
:10045A00475B485BDCD766BC02D0006A03D066847F
:06046A00020E006E1200FC
:100470009DC044F19EC045F19FC046F1A0C047F128
:10048000C582C5A220D000019D519E119F11A011CF
:1004900019E0010144514511461147110CE103C116
:1004A000E1FF04C1E2FF060EE66E01C100F002C1E9
:1004B00001F0CCDE08D0010E0101445F000E455B67
:0804C000465B475BDED712002A
:0404C800C5841200D5
:1004CC0093C046F194C047F195C048F196C049F1EC
:1004DC00A19A6686A1BA20D000019351941195116E
:1004EC00961119E0010146514711481149110CE1CF
:1004FC00EFC0E1FFF0C0E2FF030EE66EEDC000F0CE
:10050C00EEC001F09DDE08D0010E0101465F000E29
:10051C00475B485B495BDED701016ACF45F144512B
:10052C00000A02E1668A01D0669AA19A668893C095
:10053C0046F194C047F195C048F196C049F1A1BA73
:10054C0020D00001935194119511961119E00101DD
:10055C0046514711481149110CE1EFC0E1FFF0C0C1
:10056C00E2FF030EE66EEDC000F0EEC001F068DEB7
:10057C0008D0010E0101465F000E475B485B495BEA
:08058C00DED745C100F01200AA
:0A059400000E82B8010E006E120086
:10059E009DC046F19EC047F19FC048F1A0C049F1F1
:1005AE009E96C5869EB620D000019D519E119F112C
:1005BE00A01119E0010146514711481149110CE1F2
:1005CE0003C1E1FF04C1E2FF030EE66E01C100F0BC
:1005DE0002C101F034DE08D0010E0101465F000EAB
:1005EE00475B485B495BDED70101C9CF45F14451FA
:1005FE00000A02E1C58A01D0C59A9E96C5889DC0A3
:10060E0046F19EC047F19FC048F1A0C049F19EB689
:10061E0020D000019D519E119F11A01119E00101E2
:10062E0046514711481149110CE103C1E1FF04C1C4
:10063E00E2FF030EE66E01C100F002C101F0FFDD24
:10064E0008D0010E0101465F000E475B485B495B17
:08065E00DED745C100F01200D7
:100666009E9644C1C9FF9DC045F19EC046F19FC0FC
:1006760047F1A0C048F1C7A422D000019D519E11A8
:100686009F11A0111BE00101455146114711481168
:100696000EE103C1E1FF04C1E2FF040EE66E01C1F3
:1006A60000F002C101F0CFDD010E006E3BD0010E5D
:1006B6000101455F000E465B475B485BDCD79DC08A
:1006C60045F19EC046F19FC047F1A0C048F19EB6D5
:1006D60022D000019D519E119F11A0111BE0010126
:1006E60045514611471148110EE103C1E1FF04C10E
:1006F600E2FF040EE66E01C100F002C101F0A3DDC7
:10070600010E006E0FD0010E0101455F000E465B23
:10071600475B485BDCD7C5BC02D0006A03D0C58402
:06072600020E006E12003D
:10072C000B820BAEA0EF03F003680268016800684F
:08073C000A360232FF0E120022
:0E074400026A016A006A086A036A000E120067
:100752009DC046F19EC047F19FC048F1A0C049F13B
:100762000101446B456B4551120802E144518E0868
:1007720008E377DD005201E004D00101444B452B30
:10078200F2D70101120E455D02E18F0E445D03E3D3
:100792007B0E006E26D0C580C5A022D000019D51DF
:1007A2009E119F11A0111BE00101465147114811F2
:1007B20049110EE103C1E1FF04C1E2FF050EE66E3D
:1007C20001C100F002C101F040DD010E006E09D04E
:1007D200010E0101465F000E475B485B495BDCD7B7
:0407E200006A120097
:0807E6000AAE029E000E120093
:1007EE0093C044F194C045F195C046F196C047F1CF
:1007FE00668266A220D00001935194119511961134
:10080E0019E0010144514511461147110CE1EFC0A9
:10081E00E1FFF0C0E2FF060EE66EEDC000F0EEC0A6
:10082E0001F00DDD08D0010E0101445F000E455BA5
:08083E00465B475BDED71200A8
:0408460066841200B2
:10084A000B840BAE30EF04F0010E036E026A016AEC
:0A085A00006A0A360232FF0E120097
:0A086400000E84B6010E006E1200B3
:0A086E00000E84B4010E006E1200AB
:0A087800000E82B6010E006E1200A1
:0A088200000E80B4010E006E12009B
:0A088C00000E82B6010E006E12008D
:1008960093C046F194C047F195C048F196C049F11E
:1008A6000101446B456B4551120802E144518E0823
:1008B60008E3BCDC005201E004D00101444B452BA7
:1008C600F2D70101120E455D02E18F0E445D03E38E
:1008D6007B0E006E26D0668066A022D00001935162
:1008E6009411951196111BE00101465147114811CB
:1008F60049110EE1EFC0E1FFF0C0E2FF050EE66E22
:10090600EDC000F0EEC001F09EDC010E006E09D0D5
:10091600010E0101465F000E475B485B495BDCD771
:04092600006A120051
:0A092A00000E82B8010E006E1200EC
:0A093400000E86B4010E006E1200E2
:0A093E00000E86B2010E006E1200DA
:0A094800000E82B6010E006E1200D0
:0A095200000E81B4010E006E1200C9
:0A095C00000E82B8010E006E1200BA
:0A096600000E82BA010E006E1200AE
:0A097000000E86B0010E006E1200AA
:10097A000CB0FFEF04F00CA2A5EF05F00E6A000E12
:10098A00026416EF05F0F00E0214D8A4E1EF04F0A9
:10099A00023A01380F0B02260138F00B016E0038BB
:1009AA000F0B01260038F00B006E08380F0B0026DB
:1009BA000838F00B086E0E84D89002BEFAEF04F0E5
:1009CA0008360036013602360E2A02BEFAEF04F065
:1009DA0008360036013602360E2A02BEFAEF04F055
:1009EA0008360036013602360E2A0E5003649BEF93
:1009FA0005F0035E0BBC08AEA0EF05F0D880800EB0
:100A0A0008640030000E002201220222D8A0A0EFC2
:100A1A0005F0023201320032034AA5EF05F0A0EFD9
:100A2A0005F001C002F000C001F008C000F0086A39
:100A3A00000E0E8602644DEF05F0F00E0214D8A4E3
:100A4A0035EF05F0023A01380F0B02260138F00B98
:100A5A00016E00380F0B01260038F00B006E0E8471
:100A6A00D89002BEFAEF04F00036013602360E2A9A
:100A7A0002BEFAEF04F00036013602360E2A02BE32
:100A8A00FAEF04F00036013602360E2AFAEF04F0C5
:100A9A0001C002F000C001F0006A000E0E960E8836
:100AAA0002647AEF05F0F00E0214D8A465EF05F09F
:100ABA00023A01380F0B02260138F00B016E0E8440
:100ACA00D89002BEFAEF04F0013602360E2A02BEB0
:100ADA00FAEF04F0013602360E2A02BEFAEF04F0EB
:100AEA00013602360E2AFAEF04F001C002F0016A5A
:100AFA00000E0E860264AAEF05F0F00E0214D8A4C6
:100B0A0089EF05F0023A0E84D89002BEFAEF04F09B
:100B1A0002360E2A02BEFAEF04F002360E2A02BE8E
:100B2A00FAEF04F002360E2AFAEF04F0010E0C6E08
:100B3A0087DEADEF05F0020E0C6E50DEADEF05F06C
:100B4A00040E0C6EEEDDADEF05F0080E0C6EF5DD51
:020B5A00120087
:100B5C000101426B436B3BC140F13CC141F13AC1D5
:100B6C0000F000360090008027C1E1FF28C1E2FFB1
:100B7C0000C0E6FF25C100F026C101F026EC01F013
:100B8C00005001014213000E4313010E3D5F000E95
:100B9C003E5B3D513E1116E01BC1E1FF1CC1E2FF63
:100BAC00010EE66E19C100F01AC101F026EC01F03D
:100BBC0040C1E1FF41C1E2FF00C0E6FF0101404B33
:100BCC00412BE3D71BC1E1FF1CC1E2FFE66A19C14F
:100BDC0000F01AC101F026EC01F040C1E1FF41C167
:100BEC00E2FF00C0E6FF01013F51000A06E11DC112
:100BFC0000F01EC101F026EC01F001013F51010A89
:100C0C0006E115C100F016C101F026EC01F042C15D
:080C1C0000F043C101F01200D9
:100C24000101426B436B3BC140F13CC141F13AC10C
:100C340000F00036009027C1E1FF28C1E2FF00C0A8
:100C4400E6FF25C100F026C101F026EC01F00050BA
:100C540001014213000E43133DC100F03EC101F0F7
:100C6400010E3D5F000E3E5B0050011018E027C1ED
:100C7400E1FF28C1E2FF40C1E9FF41C1EAFFEECF35
:100C8400E6FF25C100F026C101F026EC01F000507A
:100C940001014213000E4313404B412BDDD73F515A
:100CA400000A06E11DC100F01EC101F026EC01F0AE
:100CB40001013F51010A06E115C100F016C101F01E
:0E0CC40026EC01F042C100F043C101F0120025
:100CD200640E0001F96F020EFA6F000EFB6F000E38
:100CE200FC6F520EF16F070EF26F000EF36F000EE3
:100CF200F46F700EF56F040EF66F000EF76F000EB4
:100D0200F86F9E0EE56F050EE66F440EE76F010E5B
:100D1200E86F660EA36F060EA46F440EA56F010E58
:100D2200A66FC80EA76F040EA86F000EA96F000E63
:100D3200AA6F949894968B988B9694889486C79E63
:080D4200C79C380EC66E1200BA
:100D4A0001013A6B3B6B21C100F022C101F026EC94
:100D5A0001F000C03AF1000E01013B6F3AC100F008
:060D6A003BC101F0120084
:100D70007C0E01010D6F010E0E6F4A0E0F6F010EFA
:100D8000106FD80E116F020E126F000E136F000E4F
:100D9000146FCE0E096F020E0A6F000E0B6F000E5D
:100DA0000C6FC40E056F020E066F000E076F000E6B
:100DB000086FAC8A900EAB6E948E949C9EAA03D062
:080DC000AECF00F0FBD71200DA
:080DC8000B6A0B86FF0E1200FE
:100DD0006C0E01010D6F010E0E6F4A0E0F6F010EAA
:100DE000106FEA0E116F020E126F000E136F000EDD
:100DF000146F140E096F030E0A6F000E0B6F000EB6
:100E00000C6F080E056F030E066F000E076F000EC5
:100E1000086F0F01218B900E226F98849892A4AADC
:0A0E200003D01DCF00F0FBD7120035
:100E2A000C6A0E6A0250D8A42EEF07F001C002F035
:100E3A0000C001F0006A0E860250D8A42EEF07F017
:100E4A0001C002F0016A0E960E880250D8B440EF33
:100E5A0007F00E50035ED8A4D8A045EF07F0D8904B
:100E6A0002BE4AEF07F0003601360236032E35EF8E
:100E7A0007F045EF07F0010E0C6E5FDC4DEF07F04F
:100E8A00020E0C6EDDDC4DEF07F0040E0C6EA6DCD4
:020E9A00120044
:100E9C00025006180E6E086A096A0B6A0350076442
:100EAC0041EF08F006500A6E068E028E03500B6E50
:100EBC000750036E000E0B6491EF07F00B50075EAA
:100ECC00D8B432EF08F0070E076400EF08F0075EA5
:100EDC0000C008F001C000F002C001F0026A074E29
:100EEC0032EF08F00764D5EF07F0075E00C008F09A
:100EFC0001C000F0016A074E32EF08F00764B3EF4F
:100F0C0007F0075E00C008F0006A074E32EF08F0E9
:100F1C0007649AEF07F00AC002F005C001F004C0A4
:100F2C0000F0086A5EEF09F0030E0764A5EF07F006
:100F3C00075E08380F0B086E074E32EF08F0D8909A
:100F4C000832074E32EF08F0D8900832074E32EFD5
:100F5C0008F0D890083232EF08F0030E0764C4EFA3
:100F6C0007F0075E08380F0B086E0038F00B0826E8
:100F7C0000380F0B006E074E32EF08F0D89000329D
:100F8C000832074E32EF08F0D89000320832074E84
:100F9C0032EF08F0D8900032083232EF08F0030E2E
:100FAC000764ECEF07F0075E08380F0B086E00388B
:100FBC00F00B082600380F0B006E0138F00B0026E2
:100FCC0001380F0B016E074E32EF08F0D89001324A
:100FDC0000320832074E32EF08F0D890013200325E
:100FEC000832074E32EF08F0D89001320032083246
:100FFC0032EF08F0030E07641DEF08F0075E0838A7
:10100C000F0B086E0038F00B082600380F0B006E23
:10101C000138F00B002601380F0B016E0238F00B73
:10102C00012602380F0B026E074E32EF08F0D890F3
:10103C000232013200320832074E32EF08F0D890FB
:10104C000232013200320832074E32EF08F0D890EB
:10105C000232013200320832096A000E0EAE26EF5F
:10106C0009F0081E001E011E021E082A0022012281
:10107C00022226EF09F00750D8A447EF08F05EEFE4
:10108C0009F0096A02C00AF0028E068E0750035C52
:10109C00076ED8B419EF09F0070E0764E7EF08F0F4
:1010AC00075E0450096E0550046E0650056E066A04
:1010BC00074E19EF09F0070E0764BCEF08F0075E46
:1010CC000450096E0550046E056A074E19EF09F0BD
:1010DC00070E07649AEF08F0075E0450096E046A65
:1010EC00074E19EF09F0070E076481EF08F00AC0EC
:1010FC0002F05EEF09F0030E07648CEF08F0075E58
:10110C0009380F0B096E074E19EF09F0D890093208
:10111C00074E19EF09F0D8900932074E19EF09F074
:10112C00D890093219EF09F0030E0764ABEF08F001
:10113C00075E09380F0B096E0438F00B09260438CA
:10114C000F0B046E074E19EF09F0D89004320932D8
:10115C00074E19EF09F0D89004320932074E19EFF7
:10116C0009F0D8900432093219EF09F0030E076424
:10117C00D3EF08F0075E09380F0B096E0438F00B3B
:10118C00092604380F0B046E0538F00B04260538BD
:10119C000F0B056E074E19EF09F0D890053204328B
:1011AC000932074E19EF09F0D89005320432093292
:1011BC00074E19EF09F0D89005320432093219EFB5
:1011CC0009F0030E076404EF09F0075E09380F0BF2
:1011DC00096E0438F00B092604380F0B046E053821
:1011EC00F00B042605380F0B056E0638F00B0526A0
:1011FC0006380F0B066E074E19EF09F0D890063221
:10120C00053204320932074E19EF09F0D890063234
:10121C00053204320932074E19EF09F0D890063224
:10122C00053204320932086A000E0EAE26EF09F0C0
:10123C00091E041E051E061E092A0422052206226A
:10124C0009500826045000220550012206500222A3
:10125C000EBE3DEF09F0D8A04CEF09F0023201327E
:10126C0000320832033E4CEF09F058EF09F0D8B0C9
:10127C0052EF09F0000E081E001E011E021E082A65
:10128C000022012202220A7E52EF09F0010E0C6E9E
:10129C00BDEC04F060EF09F0020E0C6EBDEC04F036
:1012AC0060EF09F0040E0C6E96EC03F060EF09F0A1
:0612BC00000E0C6E120092
:0212C200120018
:1012C40034C137F135C138F136C139F10BD0A00E34
:1012D400C86EFDDC44D0280EC86EF9DC40D0040E84
:1012E400006E3FD037C1F6FF38C1F7FF39C1F8FFB0
:1012F4000900F5CF01F00900F5CF02F00900F5CFA0
:1013040003F00900F5CF04F00450000A08E103508B
:10131400010A05E10250860A02E10150A00AD7E061
:1013240037C1F6FF38C1F7FF39C1F8FF0900F5CF1F
:1013340001F00900F5CF02F00900F5CF03F0090030
:10134400F5CF04F00450000A08E10350060A05E151
:1013540002501A0A02E10150800ABDE0C0D7000E13
:04136400006E120005
:1013680038D00F0120870D0E1F6F040E1E6F2185C8
:101378002BDD7ED00F012087060E1F6F820E1E6F99
:10138800218522DD75D00F012087030E1F6F400EC7
:101398001E6F218519DD6CD00F012087010E1F6F8C
:1013A800A00E1E6F218510DD63D00F012087010E6E
:1013B8001F6F150E1E6F218507DD5AD00F0120877C
:1013C8001F6B8A0E1E6F2185FFDC52D0060E006E41
:1013D80059D0000E006E0101371908E10050361986
:1013E80005E1120E351902E13451C00ABAE0000EC7
:1013F800006E371908E10050361905E1250E351938
:1014080002E13451800AB6E0000E006E371908E197
:101418000050361905E14B0E351902E13451000A26
:10142800B2E0000E006E371908E10050361905E1E8
:10143800960E351902E13451000AAEE0000E006E36
:10144800371908E10050361905E1E10E351902E1B6
:101458003451000AAAE03751000A08E13651010A5E
:1014680005E13551C20A02E13451000AA7E0AED7BE
:101478006C0E0001E96F010EEA6F4A0EEB6F010E68
:06148800EC6F006A120087
:10148E0021D0CF0EAF6EAC946CDC6BD0670EAF6E0E
:10149E00AC9467DC66D0CF0EAF6EAC8462DC61D0EC
:1014AE00670EAF6EAC845DDC5CD0440EAF6EAC8468
:1014BE0058DC57D0220EAF6EAC8453DC52D0060EE1
:1014CE00006E59D00101000E006E371908E1005070
:1014DE00361905E1120E351902E13451C00AD1E078
:1014EE00000E006E371908E10050361905E1250E81
:1014FE00351902E13451800AC9E0000E006E371929
:10150E0008E10050361905E14B0E351902E1345150
:10151E00000AC1E0000E006E371908E100503619BE
:10152E0005E1960E351902E13451000AB9E0000EBC
:10153E00006E371908E10050361905E1E10E351934
:10154E0002E13451000AB1E03751000A08E1365188
:10155E00010A05E13551C20A02E13451000AAAE03E
:10156E00AED77C0E0001E96F010EEA6F4A0EEB6FEB
:08157E00010EEC6F006A12007F
:1015860027D0CF0EAF6EAC94B8EC06F070D0670ED5
:10159600AF6EAC94B8EC06F06AD0CF0EAF6EAC84EA
:1015A600B8EC06F064D0670EAF6EAC84B8EC06F00B
:1015B6005ED0440EAF6EAC84B8EC06F058D0220E66
:1015C600AF6EAC84B8EC06F052D0060E006E59D061
:1015D6000101000E006E371908E10050361905E1C9
:1015E600120E351902E13451C00ACBE0000E006E2E
:1015F600371908E10050361905E1250E351902E1C3
:101606003451800AC4E0000E006E371908E100501C
:10161600361905E14B0E351902E13451000ABDE0D9
:10162600000E006E371908E10050361905E1960ED6
:10163600351902E13451000AB6E0000E006E371982
:1016460008E10050361905E1E10E351902E1345181
:10165600000AAFE03751000A08E13651010A05E1F8
:101666003551C20A02E13451000AA9E0AED77C0E18
:101676000001E96F010EEA6F4A0EEB6F010EEC6F87
:04168600006A1200E4
:10168A00EBC0E1FFECC0E2FF34C1E9FF35C1EAFF7C
:10169A00EECFE6FFE9C000F0EAC001F026EC01F067
:0416AA00006A1200C0
:1016AE0034C1F6FF35C1F7FF36C1F8FF0900F5CF9B
:1016BE0021F10900F5CF22F10900F5CF23F1090040
:1016CE00F5CF24F1040E01013425F66E000E3521FE
:1016DE00F76E000E3621F86E0900F5CF1DF10900E8
:1016EE00F5CF1EF10900F5CF1FF10900F5CF20F15E
:1016FE00080E3425F66E000E3521F76E000E3621DB
:10170E00F86E0900F5CF15F10900F5CF16F10900B5
:10171E00F5CF17F10900F5CF18F10C0E3425F66E42
:10172E00000E3521F76E000E3621F86E0900F5CF4A
:10173E0025F10900F5CF26F10900F5CF27F10900B3
:10174E00F5CF28F1100E3425F66E000E3521F76E0A
:10175E00000E3621F86E0900F5CF19F10900F5CF0C
:10176E001AF10900F5CF1BF10900F5CF1CF112009B
:10177E0027D0CF0EAF6EAC94B8EC06F070D0670EDB
:10178E00AF6EAC94B8EC06F06AD0CF0EAF6EAC84F0
:10179E00B8EC06F064D0670EAF6EAC84B8EC06F011
:1017AE005ED0440EAF6EAC84B8EC06F058D0220E6C
:1017BE00AF6EAC84B8EC06F052D0060E006E59D067
:1017CE000101000E006E371908E10050361905E1CF
:1017DE00120E351902E13451C00ACBE0000E006E34
:1017EE00371908E10050361905E1250E351902E1C9
:1017FE003451800AC4E0000E006E371908E1005023
:10180E00361905E14B0E351902E13451000ABDE0DF
:10181E00000E006E371908E10050361905E1960EDC
:10182E00351902E13451000AB6E0000E006E371988
:10183E0008E10050361905E1E10E351902E1345187
:10184E00000AAFE03751000A08E13651010A05E1FE
:10185E003551C20A02E13451000AA9E0AED77C0E1E
:10186E000001E96F010EEA6F4A0EEB6F010EEC6F8D
:04187E00006A1200EA
:1018820034C137F135C138F136C139F10DD0A00E6E
:10189200C86E69EC06F045D0280EC86E69EC06F0F9
:1018A20040D0040E006E3FD037C1F6FF38C1F7FFBB
:1018B20039C1F8FF0900F5CF01F00900F5CF02F0B8
:1018C2000900F5CF03F00900F5CF04F00450000A37
:1018D20008E10350010A05E10250860A02E10150C3
:1018E200A00AD5E037C1F6FF38C1F7FF39C1F8FFCA
:1018F2000900F5CF01F00900F5CF02F00900F5CF9C
:1019020003F00900F5CF04F00450000A08E1035087
:10191200060A05E102501A0A02E10150800ABCE0FF
:08192200C0D7000E006E120098
:08192A00067E4EEC07F01200EE
:1019320034C104F035C105F004C002F005C003F063
:10194200044A052A36C100F037C101F00101364BC5
:10195200372B00C0E9FF01C0EAFF02C0E1FF03C06C
:10196200E2FFEECFE6FF02C0E9FF03C0EAFFEE525C
:0E19720001E0E2D734C100F035C101F01200EF
:101980000450000A12E10550000A0FE10650000A57
:101990000CE10750000A09E1FF0E006EFF0E016E18
:1019A0007F0E026EFF0E036EA8D0086A096A075008
:1019B000D8B46BEF0DF00350D8B470EF0DF00250B7
:1019C00006180A6E028E068E0E6A02C008F001C06A
:1019D0000CF000C00DF004500D5E0550D8A0053C81
:1019E0000C5E0650D8A0063C085E086A0C6A0D6AB8
:1019F000D8A002EF0DF0D890023201320032083246
:101A0000010E0E6E0750035ED8A00FEF0DF07E0E94
:101A10000E240326D8B075EF0DF015EF0DF07E0EF5
:101A20000E240326D8A07AEF0DF0180E0B6E0D369B
:101A30000C3608360036013602360E360450005E8B
:101A40000550D8A0053C015E0650D8A0063C025EB9
:101A500006340E120EA030EF0DF00D803BEF0DF0AE
:101A6000045000260550D8B0053C01260650D8B0D9
:101A7000062802260D900B2E17EF0DF061EF0DF0EA
:101A8000D8900036013602360E360450005E0550FE
:101A9000D8A0053C015E0650D8A0063C025E063484
:101AA0000E10010B0D26D8B00C2AD8B4082AD8A4E1
:101AB00061EF0DF008320C320D32032AD8B475EF05
:101AC0000DF00AAE089E0850026E0C50016E0D50CB
:101AD000006E7DEF0DF0010EE4EC06F07DEF0DF0F1
:101AE000020EA2EC03F07DEF0DF0040E96EC03F075
:0C1AF0007DEF0DF0080E25EC04F0120054
:101AFC000050086E0150006E016A026A036A0B6A9C
:101B0C000C6A960E036E0A6A00C001F008C000F061
:0A1B1C00086A026A15EC07F01200D7
:101B2600086A096A000E0762036418EF0EF0025095
:101B360006180A6E075003267E0ED8A0A9EF0DF0F0
:101B4600035ED8B01DEF0EF0ADEF0DF0035ED8A02A
:101B560022EF0EF0028E068E02C00EF001C00BF0D0
:101B660000C00DF000500402F4CF0CF00150050245
:101B7600F4CF00F0F3CF08F00402F3500C26F45033
:101B86000822000E00220D500502F3500C26F450D8
:101B96000822000E002202500402F3500826F450D8
:101BA600002202500502016A000E0122F3500026AF
:101BB600F45001220D500602F3500826F45000227C
:101BC600026A000E012202220B500602F350002682
:101BD600F4500122000E02220E500602F350012696
:101BE600F450022202BE00EF0EF00836003601362F
:101BF60002360306D8B422EF0EF013EF0EF0D880AB
:101C0600800E08640030000E002201220222D8A0B5
:101C160013EF0EF0023201320032034A1DEF0EF0CE
:101C26000AAE029E000E25EF0EF0010EA2EC03F0A6
:101C360025EF0EF0020E96EC03F025EF0EF0040EE3
:061C460025EC04F0120081
:101C4C000D6A086A0050D8B4000C04180A6E0ABE5B
:101C5C000D1E0B6A04AE02D0041E042A00AE02D084
:101C6C00001E002A005004100A6E0ABE1FD0045039
:101C7C00085E003600340836045008260036060E7E
:101C8C000C6E00340836045000B0085E00A0082624
:101C9C0000360C2EF6D700A008260BB015D00DAED2
:101CAC00000C001E002A081E082A000C04AE09D0E5
:101CBC0000BE04D00050086E006AF1D7006A002AFA
:101CCC00000C001E0B2AD3D7082A0450085CD8A499
:0E1CDC00E6D7086A002A00AEE2D7FF0C12001D
:101CEA0034C137F135C138F136C139F10DD0A00E02
:101CFA00C86E69EC06F045D0280EC86E69EC06F08D
:101D0A0040D0040E006E3FD037C1F6FF38C1F7FF4E
:101D1A0039C1F8FF0900F5CF01F00900F5CF02F04B
:101D2A000900F5CF03F00900F5CF04F00450000ACA
:101D3A0008E10350010A05E10250860A02E1015056
:101D4A00A00AD5E037C1F6FF38C1F7FF39C1F8FF5D
:101D5A000900F5CF01F00900F5CF02F00900F5CF2F
:101D6A0003F00900F5CF04F00450000A08E103501B
:101D7A00060A05E102501A0A02E10150800ABCE093
:081D8A00C0D7000E006E12002C
:101D9200A5EC06F0FDC03AF1340E3B6F010E3C6F2C
:101DA200010E3D6F000E3E6F010E3F6F12EC06F00A
:101DB200FDC03AF135C13BF136C13CF137C13DF1CD
:0E1DC200000E01013E6F3F6BAEEC05F012000B
:101DD0000A6A0350D8A40A800750D8A40A820A507D
:101DE000D8B44BEF0FF0030AD8B404EF0FF00AB0E9
:101DF000FFEF0EF006AE49EF0FF047EF0FF002AE27
:101E000047EF0FF049EF0FF00250800B0A6E029E71
:101E10000650800B069E0A18D8B415EF0FF00A5032
:101E2000D8B447EF0FF049EF0FF00750035CD8B478
:101E30001FEF0FF0D8A03BEF0FF041EF0FF006506F
:101E4000025CD8B429EF0FF0D8A03BEF0FF041EFC0
:101E50000FF00550015CD8B433EF0FF0D8A03BEF82
:101E60000FF041EF0FF00450005CD8B44BEF0FF0CF
:101E7000D8B041EF0FF00A52D8B449EF0FF047EF56
:101E80000FF00A52D8B447EF0FF049EF0FF0D880A7
:0E1E90001200D8901200D880D88412001200E0
:101E9E001CD02AC134F12BC135F12CC136F11EDF15
:101EAE001FD02AC134F12BC135F12CC136F1E2DC41
:101EBE0017D02AC134F12BC135F12CC136F162ECA9
:101ECE0009F00ED0010E006E0BD001012951000A4F
:101EDE00E0E02951010AE5E02951020AEAE0F2D7D1
:021EEE001200E0
:101EF0002ED02AC134F12BC135F12CC136F12DC1C0
:101F000037F13DDC32D02AC134F12BC135F12CC17F
:101F100036F12DC137F1C3EC0AF027D02AC134F1D4
:101F20002BC135F12CC136F12DC137F1B4EC09F0DC
:101F30001CD02AC134F12BC135F12CC136F12DC191
:101F400037F147EC0AF011D0010E006E0ED00101FE
:101F50002951000ACEE02951010AD5E02951020A8F
:0C1F6000DDE02951100AE5E0EFD7120087
:101F6C000001FE51000A0BE1E30E0101346FFF0E7C
:101F7C00356F000E366F020E376F05DF1DD0000176
:101F8C00FE51010A0BE1F30E0101346FFF0E356FA8
:101F9C00000E366F020E376FF6DE0ED00001FE51CA
:101FAC00020A0AE1E00E0101346FFF0E356F000EDC
:101FBC00366F020E376FE7DEFFC029F1000E01010C
:101FCC002A6F29C101F0006A00C029F101C02AF171
:101FDC0000510012000E011200C029F101C02AF1BB
:101FEC0087DD520E046EB80E056E2F0E066E860E31
:101FFC00076E93DD000E046E000E056E000E066E6D
:10200C008F0E076EB7DC660E046E660E056E3B0E09
:0A201C00066E840E076E83DC1200CE
:102026000001FE51000A0BE1E50E0101346FFF0EBF
:10203600356F000E366F020E376FA8DE0ED0000128
:10204600FE51010A0AE1F50E0101346FFF0E356FEC
:10205600000E366F020E376F99DEFFC029F1000EB3
:1020660001012A6F29C101F0006A00C029F101C0EF
:102076002AF100510012000E011200C029F101C020
:102086002AF139DD000E046E000E056E7A0E066E1C
:10209600850E076E45DD000E046E000E056E000E01
:1020A600066E8F0E076E69DC000E046E000E056E5E
:0C20B600400E066E810E076E35DC120035
:1020C2000101006B336B29C12FF12AC130F12BC101
:1020D20031F12CC132F13251FF0A08E13151FF0ACC
:1020E20005E13051FF0A02E12F51FF0A0CE12DC137
:1020F20034F12EC135F1990E366F000E376F18DCB0
:10210200030E006EF5D1010E0001FE6F010131AF29
:1021120010D0800E3119006E00C031F10001FE2B8B
:102122002DC1E1FF2EC1E2FF2D0EE66E01012D4B06
:102132002E2B000E006E321908E10050311905E114
:102142000050301902E12F51000A0CE12DC134F187
:102152002EC135F1970E366F000E376F99EC0CF0E9
:10216200006AC6D13251FF0A08E13151000A05E185
:102172003051000A02E12F51000A0DE12DC134F164
:102182002EC135F18F0E366F000E376F99EC0CF0C1
:10219200FEC000F0ADD1000E046E000E056E000E02
:1021A200066E7F0E076E2FC100F030C101F031C103
:1021B20002F032C103F00BDE010ED8B0000E006E49
:1021C20000521BE02FC100F030C101F031C102F01A
:1021D20032C103F0000E046E000E056E200E066E74
:1021E200820E076E9FDC00C02FF101C030F102C0E9
:1021F20031F103C032F13307CED7000E046E000E68
:10220200056E200E066E820E076E2FC100F030C1E1
:1022120001F031C102F032C103F0D9DD000ED8B0B5
:10222200010E006E00521BE02FC100F030C101F020
:1022320031C102F032C103F0CD0E046ECC0E056E38
:102242004C0E066E7B0E076E6DDC00C02FF101C0D6
:1022520030F102C031F103C032F1332BCED7FF0E81
:102262002F15086EFF0E3015096E7F0E31150A6E9E
:10227200000E32150B6E08C004F009C005F00AC04A
:1022820006F00BC007F00436049005360636073612
:10229200000E2F15006E000E3015016E000E311566
:1022A200026EFF0E3215036E00C02FF101C030F135
:1022B20002C031F103C032F104502F11006E0550FB
:1022C2003011016E06503111026E07503211036E49
:1022D20000C02FF101C030F102C031F103C032F170
:1022E2007F0E325D006E00C0FFF0010E326F00C043
:1022F20004F02FC100F030C101F031C102F032C14F
:1023020003F0045007E0003600900136023603362F
:10231200FF0FF8D700C02FF101C030F102C031F138
:1023220003C032F12DC1E1FF2EC1E2FF3251300F65
:10233200E66E2D4B2E2B800E3319006E800E010A95
:10234200005C08E3800E060A006E800E3319005C02
:1023520001E30AD02DC1E1FF2EC1E2FF2E0EE66E8F
:102362002D4B2E2B010E006F060E0001FF6FFF5149
:10237200000A56E00101326B2FC100F030C101F0BA
:1023820031C102F032C103F000360090013602364C
:102392000336003600900136023603362F510026EE
:1023A20030510122315102223251032200C02FF159
:1023B20001C030F102C031F103C032F12FC100F08F
:1023C20030C101F031C102F032C103F00036009099
:1023D20001360236033600C02FF101C030F102C0CF
:1023E20031F103C032F12DC1E1FF2EC1E2FF3251C2
:1023F200300FE66E2D4B2E2B0051000A0EE13307F3
:102402003351000A0AE12DC1E1FF2EC1E2FF2E0E77
:10241200E66E2D4B2E2B010E006F0001FF07A7D792
:10242200FF0E01012D25E96EFF0E2E21EA6EEE5000
:10243200300A05E1010E2D5F000E2E5BF1D7FF0E73
:102442002D25E96EFF0E2E21EA6EEE502E0A04E1D2
:10245200010E2D5F000E2E5B3351000A43E02DC1A9
:10246200E1FF2EC1E2FF650EE66E2D4B2E2B800E94
:102472003319006E800E000A005C0BE22DC1E1FFF1
:102482002EC1E2FF2D0EE66E2D4B2E2B335100088E
:10249200336F33C1FFF0800E090A006E800E3319CC
:1024A200005C0FE20A0E046EFFC000F026EC0EF094
:1024B2002DC1E1FF2EC1E2FF0050300FE66E2D4B21
:1024C2002E2B0A0E046EFFC000F026EC0EF008C0A0
:1024D20000F02DC1E1FF2EC1E2FF0050300FE66E89
:1024E2002D4B2E2B2DC1E1FF2EC1E2FFE66A006AC1
:0224F2001200D6
:1024F400FEC029F1FFC02AF1A5EC06F0FDC03AF1B7
:10250400290E3B6F010E3C6F020E3D6F000E3E6FB5
:082514003F6B12EC06F012000F
:10251C0029C1FEF02AC1FFF00D0E0101006F0A0E59
:10252C002C6F3AD0FEC034F1FFC035F145EC0BF006
:10253C003ED0FEC0E9FFFFC0EAFFEE520AE0FEC04B
:10254C0034F1FFC035F145EC0BF00001FE4BFF2BD5
:10255C00F0D72DD0FEC0E9FFFFC0EAFFEE520AE033
:10256C00FEC034F1FFC035F145EC0BF00001FE4B21
:10257C00FF2BF0D7000E0101346F010E356F45ECC7
:10258C000BF02C0E0101346F010E356F45EC0BF086
:10259C000ED0060E006E0CD001012B51000AC2E0C9
:1025AC002B51010AC6E02B51020AD4E0F2D7006A83
:0225BC0012000B
:1025BE002FC1FDF02CC134F12DC135F12EC136F1F4
:1025CE0057EC0BF029C134F12AC135F12BC136F18C
:0625DE0061EC09F012009F
:1025E4000101296BA40E2A6F280E2B6F000E2C6F8D
:1025F40054DC290E0B6E960E0C6E7F0E0D6E0D2E96
:10260400FED70C2EFCD70B2EFAD7100E0101296F22
:10261400800E2A6F250E2B6F000E2C6F2D6F66DC3B
:10262400090E0B6E1E0E0C6EE40E0D6E0D2EFED7F3
:102634000C2EFCD70B2EFAD70000360E0101296FA1
:0C264400000E2A6F020E2B6F67DF1200E1
:102650000900F5CFE6FF0006FBE10106F9E11200F3
:10266000300E0101296F280E2A6F000E2B6F900E7D
:102670002C6F280E2D6F000E2E6F400E2F6F9FDFD8
:10268000E60E0001FE6F000E006E000E0010FF6FE0
:1026900031DF150E0101296F000E2A6F020E2B6F1C
:0426A0003DDF120008
:1026A400A10E0101296F000E2A6F020E2B6F34DF79
:1026B400000E0001FE6F58DC00C0DDF001C0DEF04A
:1026C40002C0DFF003C0E0F000C029F101C02AF12C
:1026D40002C02BF103C02CF1AB0E01012D6F000ED3
:1026E4002E6FEDDC6F0E296F000E2A6F010E2B6F1B
:1026F40013DFAB0E0101296F000E2A6F010E2B6F41
:102704000BDF8C0E0101296F000E2A6F020E2B6F56
:1027140003DF000E0001FE6F84DC00C0E1F001C0A5
:10272400E2F002C0E3F003C0E4F000C029F101C00C
:102734002AF102C02BF103C02CF1AB0E01012D6F65
:10274400000E2E6FBCDC520E296F000E2A6F010E94
:102754002B6FE2DEAB0E0101296F000E2A6F010E12
:102764002B6FDADE310E0101296F000E2A6F020E83
:102774002B6FD2DE520E0B6E2B0E0C6E000E0D6EF6
:102784000D2EFED70C2EFCD70B2EFAD7000012000C
:0E27940054EC14F025DF62DF83DFFED7FFD7A1
:1028A80010EE15F08E0E006E010E016EA20EF66E81
:0E28B800270EF76E000EF86E28EC13F01200DB
:1027A200203E203E203E2061707020696E697420B8
:0C27B200646F6E65203C203C203C200041
:0527BE00202552480037
:1027C300203E203E203E2073797320696E69742079
:0C27D300646F6E65203C203C203C200020
:1027DF00203E203E203E2072656C61746976652034
:0D27EF0068756D696469747920203A2000D6
:1027FC00203E203E203E2074656D706572617475BC
:0D280C00726520202020202020203A20008E
:0328190020430059
:04281C00494E4600DB
:0428200000000000B4
:02282400300082
:042826004E614E00B1
:04282A0000000000AA
:02282E00200088
:1028300098014A018A014A015E014A0134014A01B4
:1028400026014A0150014A0142014A01A6014A01FA
:1028500008024A01FA014A0124024A0116024A0109
:10286000FE020000BA020000880200007E020000A2
:10287000A6020000B0020000920200009C020000CC
:10288000780300006E030000640300008203000070
:1028900052070000C80400007004000066064401EE
:0428A0009E0544014C
:0428A400A086010009
:020000040030CA
:0E00000015137F7CF98B91FFFFC0FFE0FF40DE
:00000001FF
